:020000040800F2
:10000000E014002005020008D9170008C9140008F0
:100010006D150008550A00080D37000800000000A3
:10002000000000000000000000000000092300089C
:1000300085100008000000006D220008332400082D
:100040001F0200081F0200081F0200081F0200080C
:100050001F0200081F0200081F0200081F020008FC
:100060001F0200081F0200081F0200084D0D0008B3
:100070001F0200081F0200081F0200081F020008DC
:100080001F0200081F0200081F0200081F020008CC
:100090001F0200081F0200081F0200081F020008BC
:1000A0001F020008993000081F0200081F02000804
:1000B0001F0200081F0200081F0200081F0200089C
:1000C0001F0200081F0200081F0200081F0200088C
:1000D0001F0200081F0200081F0200081F0200087C
:1000E0001F0200081F0200081F0200081F0200086C
:1000F00000F002F800F05CF80AA090E8000C8244DE
:100100008344AAF10107DA4501D100F051F8AFF2BA
:10011000090EBAE80F0013F0010F18BFFB1A43F0E5
:100120000103184790610000B06100000A444FF0DD
:10013000000C10F8013B13F0070408BF10F8014B46
:100140001D1108BF10F8015B641E05D010F8016B8B
:10015000641E01F8016BF9D113F0080F1EBF10F8EF
:10016000014BAD1C0C1B09D16D1E58BF01F801CB12
:10017000FAD505E014F8016B01F8016B6D1EF9D595
:100180009142D6D3704700000023002400250026AA
:10019000103A28BF78C1FBD8520728BF30C148BFEA
:1001A0000B6070471FB500F062F81FBD10B510BDA1
:1001B00000F09CF91146FFF7F5FF03F053FB00F048
:1001C000BAF903B4FFF7F2FF03BC00F0BDF9000079
:1001D0000B49D1F800C04A685CF8043B1068184429
:1001E00042F8040B8C4528BFA1F1DC0C8A4228BFE1
:1001F000A1F1DC02C1F800C04A6020F00040704765
:10020000780E00200948804709480047FEE7FEE7CE
:10021000FEE7FEE7FEE7FEE7FEE7FEE7FEE7FEE7B6
:1002200004480549054A064B70470000352400087C
:10023000F1000008E00E0020E0140020E010002093
:10024000E01000200B4910B5A1F17C020A4CC2E974
:100250003712372106E000EB104342F82130074BFC
:1002600000FB03400B1EA1F10101F4DC10BD0120D5
:10027000E8E70000180E0020E119D666CD0D010058
:1002800040EA0103024630B59B0710D14FF001341C
:1002900000E008C208C91D1B9D4315EAC41FF8D021
:1002A00013F0FF0102F8011B0DD01B0AF8E711F84B
:1002B000013B002B02F8013B05D011F8013B002B5C
:1002C00002F8013BF3D130BD10B5431C02E010F839
:1002D000011B71B18107FAD14FF0013202C88C1AAB
:1002E0008C4314EAC211F9D0C01A0A0603D0C01E0A
:1002F00010BDC01A10BD0A0401D0801E10BD090235
:10030000FCD0401E10BD032A40F2308010F0030CD8
:1003100000F0158011F8013BBCF1020F624498BF58
:1003200011F801CB00F8013B38BF11F8013BA2F1F5
:10033000040298BF00F801CB38BF00F8013B11F070
:10034000030300F09C80083AC0F0088051F8043B99
:10035000083A51F804CBA0E80810F5E7121D5CBF7D
:1003600051F8043B40F8043BAFF30080D20724BFB0
:1003700011F8013B11F801CB48BF11F8012B24BF44
:1003800000F8013B00F801CB48BF00F8012B704793
:100390004FF000020429C0F0128010F0030C00F0AE
:1003A0001B80CCF1040CBCF1020F18BF00F8012B2C
:1003B000A8BF20F8022BA1EB0C0100F00DB85FEAFA
:1003C000C17C24BF00F8012B00F8012B48BF00F8C6
:1003D000012B70474FF0000200B513469446964635
:1003E000203922BFA0E80C50A0E80C50B1F1200148
:1003F000BFF4F7AF090728BFA0E80C5048BF0CC0F6
:100400005DF804EB890028BF40F8042B08BF704753
:1004100048BF20F8022B11F0804F18BF00F8012BC5
:10042000704710B5044610F0030F08BF11F0030F1A
:1004300040F015804FF0013E121FC0F20E8051F8BF
:10044000043BA3EB0E0C2CEA030C1CEACE1C08BFE9
:1004500040F8043BF0D0A1F1040102F10402521E65
:1004600008DB11F8013B002B00F8013BF7D11146E6
:10047000FFF78EFF204610BD70477047704710B5DC
:10048000203AC0F00B80B1E81850203AA0E818508C
:10049000B1E81850A0E81850BFF4F5AF5FEA027C4D
:1004A00024BFB1E81850A0E8185044BF18C918C0BC
:1004B000BDE810405FEA827C24BF51F8043B40F85D
:1004C000043B08BF7047D20728BF31F8023B48BF42
:1004D00011F8012B28BF20F8023B48BF00F8012B80
:1004E0007047000000487047800E00207546FFF7F7
:1004F000F9FFAE4605006946534620F007008546E1
:1005000018B020B5FFF78CFEBDE820404FF0000684
:100510004FF000074FF000084FF0000B21F00701EB
:10052000AC46ACE8C009ACE8C009ACE8C009ACE82E
:10053000C0098D46704710B50446AFF300802046D1
:10054000BDE81040FFF73DBE01491820ABBEFEE7F5
:1005500026000200704721B1826842F001028260E9
:1005600003E0826822F001028260704721B1826854
:1005700042F48072826003E0826822F480728260BA
:100580007047000010B504460548844207D1012198
:10059000401501F0A9FE0021601501F0A5FE10BD77
:1005A0000024014021B1826842F48012826003E09D
:1005B000826822F4801282607047014600208A68B7
:1005C00002F004020AB1012000E000207047014659
:1005D00000208A6802F008020AB1012000E0002031
:1005E0007047000030B502460020002350680F4CD1
:1005F00020400D790C6844EA05242043506090683F
:100600000B4C2040D1E902542C434D7944EA450477
:1006100020439060D06A20F470000C7C641EE4B229
:10062000234340EA0350D06230BD0000FFFEF0FFDC
:10063000FDF7F1FFF0B504460D4600200021092D1D
:1006400011DDE068A5F10A0606EB4607072606FA63
:1006500007F18843A5F10A0606EB460603FA06F100
:100660000843E0600CE0206905EB4507072606FA21
:1006700007F1884305EB450603FA06F108432061BC
:10068000072A0FDA606B561E06EB86071F2606FA4E
:1006900007F18843561E06EB860605FA06F1084365
:1006A000606322E00D2A0FDA206BD61F06EB860767
:1006B0001F2606FA07F18843D61F06EB860605FAC1
:1006C00006F10843206310E0E06AA2F10D0606EB94
:1006D00086071F2606FA07F18843A2F10D0606EBEE
:1006E000860605FA06F10843E062F0BD816841F034
:1006F00008018160704721B1826842F4A0028260E3
:1007000003E0826822F4A00282607047816841F0B1
:1007100004018160704700002DE9F0410446204645
:1007200003F0EEFC0546044A044B03F0EBFB0746DE
:1007300003F06EFBBDE8F081432FF4422FF4F23F4B
:1007400008B50121082001F0BFFD10208DF803003D
:100750008001ADF8000003208DF8020069460348CF
:1007600000F080FD01200249086008BD000C014036
:10077000A881214200B587B0142102A8FFF72AFE04
:100780000020019001210C2001F09EFD0121480272
:1007900001F09AFD4FF4404001F06AFD00208DF811
:1007A000070001208DF806000220ADF8040001A921
:1007B000294800F057FD0420ADF8040001A927489E
:1007C00000F050FD2648FFF7DDFE00200290059066
:1007D00001208DF80C008DF80D004FF4602004907E
:1007E00002208DF8180002A91D48FFF7FBFE072321
:1007F000012209211A48FFF71DFF07230222114693
:100800001748FFF717FF01211548FFF7CBFE01211D
:100810001348FFF7ABFE01211148FFF79CFE10487B
:10082000FFF764FF00BF0E48FFF7D1FE0028FAD1A2
:100830000B48FFF76BFF00BF0948FFF7BEFE00281B
:10084000FAD1074800F0AAFD0649088001210448B2
:10085000FFF751FF07B000BD000C01400008014048
:10086000002401402000002010B500F005F800F041
:1008700015F8FFF77FFF10BD08B5002000900B2092
:100880008DF8000000208DF801008DF80200012095
:100890008DF80300684600F0A1FF08BD00B58BB0DD
:1008A0002C216846FFF796FD0121084601F0ECFC7B
:1008B000144800F0F7FA1448009014480190002002
:1008C00002900220039000200490802005904000B8
:1008D000069080000790202008904FF44050099027
:1008E00000200A906946074800F0A1FB0121054855
:1008F00000F0CCFA01220221024800F08FFB0BB07D
:1009000000BD0000080002404C24014022000020ED
:1009100010B580220C490D48FFF7F5FC0B48007814
:10092000312804D080220A490848FFF7ECFC074927
:10093000087D00F00DFE074908700449487D00F06D
:100940000EFE0549087010BD00E00008F409002003
:10095000CA0300202B0300202A03002010B5A2B0F8
:100960002B4C2C484088401C2A494880802202A8F1
:10097000FFF7C9FC00F066FC204600F011FC00F017
:10098000F3FB05980090204602A90EC900F0C2FBB7
:100990000998009004F1100006A90EC900F0BAFBF6
:1009A0000D98009004F120000AA90EC900F0B2FBD6
:1009B0001198009004F130000EA90EC900F0AAFBB6
:1009C0001598009004F1400012A90EC900F0A2FB96
:1009D0001998009004F1500016A90EC900F09AFB76
:1009E0001D98009004F160001AA90EC900F092FB56
:1009F0002198009004F170001EA90EC900F08AFB36
:100A0000204600F0FBFB00F0EFFB22B010BD000021
:100A100000E00008F409002008B501210C2001F0D5
:100A200053FC48208DF803000120ADF8000003209E
:100A30008DF802006946054800F014FC8020ADF8EE
:100A400000006946024800F00DFC08BD000C0140A2
:100A50000008014000BFFEE708B501210C2001F0AD
:100A600033FC48208DF8030003208DF80200682035
:100A7000ADF800006946024800F0F4FB08BD000034
:100A80000008014010B52548007838B324480068B4
:100A900038B123480838006818B12148001D0068A3
:100AA000E0B90A2002F04EFE00201C4908701C48E4
:100AB000006818B901201B4908701FE01848083861
:100AC000006818B902201749087017E01448001D83
:100AD000006898B90320134908700FE010480068B7
:100AE00001280BD10E4808380068012806D10C48AF
:100AF000001D0068012801D10849087009480078E4
:100B0000094908700548007828B100200549087097
:100B10000548007810BD0020FCE7000058000020C8
:100B2000140121425A0000205900002070B50546EA
:100B30000C4625B11CB121462846FFF729FC0020B0
:100B40000149087070BD00007805002070B50546A9
:100B50000E461446621E31462846FFF762FC00210D
:100B6000601E295470BD000000B58BB02C21684672
:100B7000FFF730FC0121084601F086FB134800F026
:100B800091F9684600F071FA1148009011480190FF
:100B900010200290142003900020049080200590E3
:100BA0004000069080000790202008904FF44050AD
:100BB000099000200A906946044800F038FA0121A3
:100BC000024800F063F90BB000BD000030000240A5
:100BD00008740040740A002000B585B0002004901D
:100BE00000900190029003900121042001F06CFB21
:100BF0000121480701F058FB1020ADF8100000203B
:100C00008DF8130003208DF8120004A90C4800F0A1
:100C100029FB10210A4800F0B2FB0C2000900020B4
:100C200001900390694600F037F80121002000F0A0
:100C300009F80121002000F019F805B000BD0000FE
:100C40000008014039B1084A1268012383401A4361
:100C5000054B1A6006E0044A1268012383409A4358
:100C6000014B1A60704700000074004041B1094A0E
:100C700012684FF4805383401A43064B1A6007E012
:100C8000044A12684FF4805383409A43014B1A6020
:100C9000704700000074004030B5002200230A4C69
:100CA000226840F6FE748440A243D1E900452C43FB
:100CB0008D682C43CD6844EA050303FA00F422430F
:100CC000014C226030BD00000074004010B5FFF7F9
:100CD00083FFFFF749FF4FF47A7000F001F810BD71
:100CE0002DE9F04104463C2C02DBB4F5FA5F01DD4E
:100CF000BDE8F081084F600097FBF0F0401E85B220
:100D000001260021054802F088FA3146284602F003
:100D100061FA00BFECE7000080EE360000040040FE
:100D200008B50121082001F0CFFA48208DF8030012
:100D300003208DF802000002ADF800006946024869
:100D400000F090FA08BD0000000C01402DE9F041D0
:100D500000240025022000F04BF9002870D039480B
:100D60003949097850F8210038490968081A374983
:100D70000860374800883349334A127841F8220026
:100D800008463149097850F821003049096808447B
:100D90002E4908602F482C49097850F821002E4927
:100DA0000968081A2C490860294840882949264AB8
:100DB000127841F8220008462349097850F82100AA
:100DC000254909680844244908601F480078401CE8
:100DD0000A2190FBF1F201FB12001B4908701B482D
:100DE000006803F025FB06461C4903F023FA04467D
:100DF0001948006803F01CFB0646184903F01AFA6C
:100E000005462046FFF788FC8046154801684046A5
:100E100003F058FC074602F0B5FF0646114903F0FF
:100E20001FFC08D22046FFF777FC0F4908600846F0
:100E300000680B4908600D480560012000F018F8B3
:100E4000BDE8F0819005002034000020380000202B
:100E500022000020B80500203C00002000002041B6
:100E600040000020000048422C00002030000020FC
:100E700000F0805111B10349086001E00249486067
:100E800070470000040402400000024021B10268E3
:100E900042F00102026004E002684FF6FE731A405D
:100EA0000260704701684FF6FE7211400160002138
:100EB000016041608160C1604B49884208D14A4964
:100EC0000839496841F00F01474A083A51608AE001
:100ED00045491431884208D143490839496841F0ED
:100EE000F001414A083A51607DE03F49283188428B
:100EF00008D13D490839496841F470613A4A083AD5
:100F0000516070E038493C31884208D1364908398F
:100F1000496841F47041344A083A516063E032490B
:100F20005031884208D130490839496841F470216C
:100F30002D4A083A516056E02B496431884208D165
:100F400029490839496841F47001274A083A516033
:100F500049E025497831884208D123490839496850
:100F600041F07061204A083A51603CE01F498842D4
:100F700006D1011F096841F00F01021F116032E024
:100F80001A491431884208D11849091F096841F0EB
:100F9000F001164A121F116025E0144928318842D9
:100FA00008D11249091F096841F470610F4A121FE4
:100FB000116018E00D493C31884208D10B49091FE6
:100FC000096841F47041094A121F11600BE007499A
:100FD0005031884207D10549091F096841F4702141
:100FE000024A121F116070470800024008040240C4
:100FF00001460020002201F0805313B1054B1A680E
:1010000001E0054B1A6802EA01030BB1012000E080
:101010000020704700040240000002401AB103683B
:101020000B43036002E003688B430360704710B515
:101030000022026847F6F0739A430C6A8B682343D8
:101040000C6923434C6923438C692343CC692343B4
:101050004C6A23438C6A23431A430260CB68436083
:101060000B6883604B68C36010BD00210160416064
:101070008160C160016141618161C1610162416260
:10108000816270477047000010B56FF0040001F0F6
:10109000BCF90A4800680A49B0FBF1F00949087038
:1010A0000846007800EB4001C1EBC0104FF6FF711D
:1010B00001EAC0000449088010BD000004000020BF
:1010C00000127A001C0000201E0000202DE9F047CD
:1010D00005460E46002415E035F81410A1F5FA6017
:1010E00003F0A6F98146314603F0EEF98046074940
:1010F00003F032F8074603F07BF9054921F81400A4
:10110000601CC4B2142CE7DBBDE8F0870000FA4491
:10111000740A002070B5049CB0F1006F1ED3104D0E
:10112000A8421BD20F4D2D6945F480350D4E356117
:10113000016042608360C46035462D6945F48025B6
:10114000356100BF074DED6805F00105002DF9D1AF
:10115000044D2D6925F48035024E356170BD0000C7
:1011600000000108002002400C48006940F4803073
:101170000A4908610846006940F40020086100BF80
:101180000648C06800F001000028F9D10348006952
:1011900020F48030014908617047000000200240BF
:1011A000B0F1006F1BD30E49884218D20D4909696E
:1011B00041F400310B4A116111464861096941F05F
:1011C0004001116100BF0749C96801F00101002910
:1011D000F9D10449096921F40031024A11617047CB
:1011E00000000108002002400348006940F400406C
:1011F000014908617047000000200240B0F1006F13
:101200001BD30E49884218D20D49096941F4803137
:101210000B4A116111464861096941F040011161B1
:1012200000BF0749C96801F001010029F9D104494B
:10123000096921F48031024A1161704700000108F8
:1012400000200240044805494860054848600248BB
:101250004862034848627047230167450020024006
:10126000AB89EFCD2DE9F041024600250026002094
:1012700000230024002791F803C00CF00F0591F81B
:1012800003C00CF0100CBCF1000F03D091F802C0A9
:101290004CEA050591F800C0BCF1000F31D014688C
:1012A00000202BE04FF0010C0CFA00F3B1F800C065
:1012B0000CEA03069E4220D183004FF00F0C0CFA7B
:1012C00003F7BC4305FA03FC4CEA040491F803C09D
:1012D000BCF1280F06D14FF0010C0CFA00FCC2F84B
:1012E00014C00AE091F803C0BCF1480F05D14FF0DB
:1012F000010C0CFA00FCC2F810C0401C0828D1D325
:101300001460B1F800C0BCF1FF0F34DD5468002058
:101310002EE000F1080C4FF0010808FA0CF3B1F8C8
:1013200000C00CEA03069E4221D183004FF00F0C4F
:101330000CFA03F7BC4305FA03FC4CEA040491F8E9
:1013400003C0BCF1280F05D100F1080C08FA0CF815
:10135000C2F8148091F803C0BCF1480F07D100F126
:10136000080C4FF0010808FA0CF8C2F81080401C75
:101370000828CED35460BDE8F08141617047016117
:10138000704770B505460E463146284602F026FDE8
:1013900004460CB1207870BD2020FCE710B588B061
:1013A0000346002007901CE01846FFF79FF900BF96
:1013B0001846FFF70CF90028FAD11846FFF7A6F9EE
:1013C00000BF1846FFF7F9F80028FAD1D86C01A938
:1013D0009DF81C2021F812009DF81C00401CC0B292
:1013E00007909DF81C000A28DEDB0020079035E0FE
:1013F0000020069029E001A89DF8181030F811107F
:1014000001AA9DF81800401C32F81000814217DD37
:1014100001A89DF8181030F81100009001A99DF85E
:101420001800401C31F810009DF8182021F8120017
:10143000BDF8001001AA9DF81800401C22F81010F9
:101440009DF81800401CC0B206909DF818000928AD
:10145000D1DB9DF81C00401CC0B207909DF81C0019
:101460000A28C5DB0020009007900FE001A99DF835
:101470001C00801C31F81000BDF80010084480B238
:1014800000909DF81C00401CC0B207909DF81C0005
:101490000628EBDBBDF80000062190FBF1F0BDF85B
:1014A0000010062291FBF2F402FB1411032291FBBF
:1014B000F2F1084480B20090BDF8000000B2C0F51F
:1014C000006000B208B010BD00BFFEE710B5FFF726
:1014D000DBFD4FF4A06000F0B9F900F089FAFFF7E6
:1014E000C3F9FFF7B9FAFFF71BFCFFF795FAFFF70F
:1014F00027F900F03DF8472140F2E73001F094FD74
:101500000A2002F01FF9FFF7E1FB0B480B4A1278A3
:1015100050F822100A48FFF7D9FD01200949087048
:101520000948006802F064FF084909884418204609
:10153000FEF788FE10BD0000B04700082A03002017
:101540009A040020010000202C000020242C0140DF
:101550000146032901DD002070470846FCE70146EB
:10156000092901DB052070470846FCE700BFFEE7BC
:1015700010B502F0CDF8044641225CA1204602F0ED
:1015800015F942225AA1204602F010F943225AA12D
:10159000204602F00BF9442259A1204602F006F938
:1015A000452258A1204602F001F9462256A12046C4
:1015B00002F0FCF8472256A1204602F0F7F8482234
:1015C00054A1204602F0F2F8492254A1204602F02C
:1015D000EDF84A2252A1204602F0E8F84B2252A12F
:1015E000204602F0E3F84C2250A1204602F0DEF83B
:1015F0004D2250A1204602F0D9F84E224EA120469D
:1016000002F0D4F84F224DA1204602F0CFF850222C
:101610004BA1204602F0CAF851224BA1204602F00D
:10162000C5F852224AA1204602F0C0F8532249A12F
:10163000204602F0BBF8542247A1204602F0B6F83B
:10164000552246A1204602F0B1F8562244A1204678
:1016500002F0ACF8572244A1204602F0A7F8582225
:1016600042A1204602F0A2F8592242A1204602F0EF
:101670009DF85A2241A1204602F098F8302241A15B
:10168000204602F093F8312240A1204602F08EF865
:10169000322240A1204602F089F833223FA12046A1
:1016A00002F084F834223FA1204602F07FF8352270
:1016B0003EA1204602F07AF836223EA1204602F0F2
:1016C00075F837223DA1204602F070F838223DA17E
:1016D000204602F06BF839223CA1204602F066F861
:1016E0003C4894E80E000EC010BD00002E2D0000F6
:1016F0002D2E2E2E000000002D2E2D2E000000007D
:101700002D2E2E002E0000002E2E2D2E000000006B
:101710002D2D2E002E2E2E2E000000002E2E00002D
:101720002E2D2D2D000000002D2E2D002E2D2E2EC5
:10173000000000002D2D00002D2E00002D2D2D006D
:101740002E2D2D2E000000002D2D2E2D000000002E
:101750002E2D2E002E2E2E002D0000002E2E2D00C0
:101760002E2E2E2D000000002E2D2D002D2E2E2D84
:10177000000000002D2E2D2D000000002D2D2E2EFE
:10178000000000002D2D2D2D2D0000002E2D2D2DC3
:101790002D0000002E2E2D2D2D0000002E2E2E2D82
:1017A0002D0000002E2E2E2E2D0000002E2E2E2E6F
:1017B0002E0000002D2E2E2E2E0000002D2D2E2E60
:1017C0002E0000002D2D2D2E2E0000002D2D2D2D54
:1017D0002E000000A80A00207047000070B500210C
:1017E00000230F22C47804B3154C246804F4E06489
:1017F000C4F5E064210AC1F10403CA40447804FA44
:1018000003F184781440214309010E4C0678A15558
:10181000047804F01F050124AC4005786D11AD007B
:1018200005F1E025C5F8004109E0047804F01F0542
:101830000124AC40044D0678761145F8264070BD71
:101840000CED00E000E400E080E100E0024901432B
:10185000024A1160704700000000FA050CED00E03C
:1018600000200CE0002106E00022064B03EBC10340
:101870001A544A1CD1B28029F6DB421CD0B2082887
:10188000F0DB7047E005002010B500218D2000F04E
:10189000A5FC0021142000F0A1FC0021AF2000F0E5
:1018A0009DFC10BD38B50446012004F12701CAB2E1
:1018B00009390090C8B221231E2100F06BF838BD11
:1018C00038B50446012004F12101CAB2C91E0090B6
:1018D000C8B221231E2100F05DF838BDF0B51446D2
:1018E00000267F2801DC3F2900DDF0BD0B46CF1725
:1018F00001EB5777FF10C7F10707FAB2CF1701EBDB
:101900005777FF10A1EBC707FDB2C5F10707012309
:10191000BB40DEB24CB10A4B03EBC0039B5C3343CC
:10192000074F07EBC007BB5408E0054B03EBC003B0
:101930009B5CB343024F07EBC007BB5400BFD4E727
:10194000E00500202DE9F0438046894615461E46F5
:1019500047460BE0012249463846FFF7BFFF012208
:1019600031463846FFF7BAFF781CC7B2AF42F1DD07
:101970004C460BE0012221464046FFF7AFFF012213
:1019800021462846FFF7AAFF601CC4B2B442F1DD2D
:10199000BDE8F0832DE9FC4F04460D4616461F4670
:1019A000B44202DDB246A34601E0A246B346BD42C0
:1019B00002DD0197009501E001950097D04612E005
:1019C000DDF8049008E0494640460B9AFFF786FF91
:1019D00009F1010000F0FF0900988145F3DD08F1ED
:1019E000010000F0FF08D845EADDBDE8FC8F0000EB
:1019F00008B50121042000F067FC0121082000F057
:101A000063FC4FF48070ADF8000010208DF80300E7
:101A100003208DF8020069463F48FFF723FC4FF48E
:101A20007040ADF8000010208DF8030003208DF801
:101A3000020069463948FFF715FC4FF4004137486A
:101A4000FFF79DFC0021AE2000F0C8FB0021D5204F
:101A500000F0C4FB0021802000F0C0FB0021A82082
:101A600000F0BCFB00213F2000F0B8FB0021D32098
:101A700000F0B4FB0021084600F0B0FB002140203C
:101A800000F0ACFB00218D2000F0A8FB0021142009
:101A900000F0A4FB0021202000F0A0FB0021022088
:101AA00000F09CFB0021A02000F098FB0021CF203B
:101AB00000F094FB0021DA2000F090FB00211220BE
:101AC00000F08CFB0021812000F088FB0021EF203A
:101AD00000F084FB0021D92000F080FB0021F120E0
:101AE00000F07CFB0021DB2000F078FB002130209F
:101AF00000F074FB0021A42000F070FB0021A62060
:101B000000F06CFB0021AF2000F068FBFFF7A8FE9F
:101B1000FFF7BAFE08BD000000080140000C0140BC
:101B200070B500241CE004F1B001C8B2002100F03F
:101B300055FB0021084600F051FB0021102000F069
:101B40004DFB002508E0084901EBC501085D0121B6
:101B500000F044FB681CC5B2802DF4DB601CC4B2ED
:101B6000082CE0DB70BD0000E00500202DE9FF4FF0
:101B700083B0804617469946DDE910644FF0000AAD
:101B800000200290002508F1070000F0FF0A20461F
:101B900004EBD071491001FB09A1491CCDB204EB43
:101BA000D07105EB6101C9B202910021384602F003
:101BB00057FC0DD2234688A24046049900F05CFAF7
:101BC00087F0004B8549584602F07EFC07460AE044
:101BD000234683A24046049900F04EFA7F493846D6
:101BE00002F072FC07467D49384602F023FB019063
:101BF00002F0FEFB83464B465A4600945046049939
:101C000000F0F0F9234677A22846049900F034FA50
:101C1000012E04D0022E15D0032E12D159E03846E1
:101C200002F0CAFB642190FBF1F00A2190FBF1F273
:101C300001FB120B33465A4600940499029800F0B7
:101C4000D1F9C4E0384602F0B7FB0A2190FBF1F06D
:101C5000642190FBF1F201FB12000A2826DAA34668
:101C600004EBDB7105EB6101C8B201230022009493
:101C7000049900F0B7F9384602F09EFB0A2190FB68
:101C8000F1F0642190FBF1F201FB120004EBDB7137
:101C90004910022202FB0151CDE90040C8B2711E79
:101CA000CBB2019A049900F09DF911E0384602F098
:101CB00083FB0A2190FBF1F0642190FBF1F201FB20
:101CC000120B33465A4600940499029800F08AF9A0
:101CD0007DE0384602F070FB4FF47A7190FBF1F230
:101CE00001FB12000A2831DAA34604EBDB7105EB95
:101CF0006101C8B2012300220094049900F072F936
:101D000004EBDB714910022202FB0151C8B201232E
:101D100000220094049900F065F9384602F04CFB6B
:101D20004FF47A7190FBF1F201FB120004EBDB71CE
:101D30004910032202FB0151CDE90040C8B2B11E97
:101D4000CBB2019A049900F04DF93FE0384602F019
:101D500033FB4FF47A7190FBF1F201FB120064281F
:101D600024DAA34604EBDB7105EB6101C8B2012361
:101D700000220094049900F035F9384602F01CFB6B
:101D80004FF47A7190FBF1F201FB120004EBDB716E
:101D90004910022202FB0151CDE90040C8B2711E78
:101DA000CBB2019A049900F01DF90FE0384602F019
:101DB00003FB4FF47A7190FBF1F201FB120B3346F7
:101DC0005A4600940499029800F00CF900BF00BF35
:101DD00007B0BDE8F08F00002D00000000007A443D
:101DE000200000002E0000002DE9F04F06460C46B2
:101DF0001746A2461A4800EB471B00252BE01BF8AC
:101E000005804FF0000920E008F0800028B1012291
:101E100021463046FFF762FD04E0002221463046AD
:101E2000FFF75CFD4FEA48604FEA1068601CC4B2DF
:101E3000A4EB0A00102804D10AF0FF04701CC6B2FB
:101E400006E009F1010000F0FF09B9F1080FDBDB42
:101E500000BF681CC5B2202DD1DBBDE8F08F0000AB
:101E60005B0000202DE9F84F80460D4617461C46C2
:101E7000AA462046E31704EB5373DB1021464FEAD2
:101E8000E47C04EB5C7C4FEAEC0CA4EBCC0CBCF1E6
:101E9000000F02D04FF0010C01E04FF0000C634442
:101EA000224604EBD27C4FEA6C0C03FB0CF303F0EC
:101EB000FF0BA7F12000C7B2002635E0102C05D19A
:101EC0001B4800EB0710805D009001E0BDE8F88F33
:101ED0004FF0000922E0009800F0800028B10122B4
:101EE00029464046FFF7FAFC04E000222946404616
:101EF000FFF7F4FC00984006000E0090681CC5B285
:101F0000A5EB0A00A04205D1554608F1010000F0FA
:101F1000FF0806E009F1010000F0FF09B9F1080F20
:101F2000D9DB00BF701CC6B25E45C7DB00BFCDE782
:101F3000304E00082DE9F84F05460F461446AA46D4
:101F400000200090412C06DB5A2C04DCA4F1410057
:101F5000C0B200900AE0302C06DB392C04DCA4F17E
:101F60001600C0B2009001E024200090009800EB21
:101F7000400101EBC0001A4901EB800B00262BE069
:101F80001BF806804FF0000920E008F0800028B11F
:101F9000012239462846FFF7A1FC04E00022394619
:101FA0002846FFF79BFC4FEA48604FEA1068681C20
:101FB000C5B2A5EB0A00102804D10AF0FF05781C71
:101FC000C7B206E009F1010000F0FF09B9F1080FFE
:101FD000DBDB00BF701CC6B22C2ED1DBBDE8F88F56
:101FE000D44700082DE9FF4F81B0074691461E46B1
:101FF0000E9D4FF0000A002439E0301B401EC1B294
:102000000A2001F0CFFEB9FBF0F00A21B0FBF1F29B
:1020100001FB1208BAF1000F16D1701EA04213DDA9
:10202000B8F1000F0ED10120AB4605EBDB71491072
:1020300001FB04710090C8B22B4620220299FFF7E1
:1020400011FF12E04FF0010A0120AB4605EBDB71F6
:10205000491001FB04710090C8B208F13001CAB206
:102060002B460299FFF7FEFE00BF601CC4B2B442CB
:10207000C3DB05B0BDE8F08FF8B506460F46154640
:102080001C4621E004EBD4714910C1F18001B1423A
:1020900002DA00263819C7B2C4F14000B84204DAA7
:1020A000002006460746FFF7DBFB0120E3B2009065
:1020B0002A7839463046FFF7D5FE204604EBD0712A
:1020C00006EB6101CEB26D1C28787E2802DC2878F0
:1020D0002028D7DAF8BD00002DE9F84F04460E4657
:1020E0001746A246202000901A4800EB471B002507
:1020F0002BE01BF805804FF0000920E008F080007D
:1021000028B1012231462046FFF7E8FB04E0002217
:1021100031462046FFF7E2FB4FEA48604FEA10687D
:10212000601CC4B2A4EB0A00102804D10AF0FF041A
:10213000701CC6B206E009F1010000F0FF09B9F118
:10214000080FDBDB00BF681CC5B200988542D0DBFE
:10215000BDE8F88FE70200202DE9F84F04460E464F
:102160001746A2462420009007EBC7001A4901EB4E
:10217000800B00252BE01BF805804FF0000920E0C4
:1021800008F0800028B1012231462046FFF7A6FB67
:1021900004E0002231462046FFF7A0FB4FEA4860EA
:1021A0004FEA1068601CC4B2A4EB0A00142804D1E2
:1021B0000AF0FF04701CC6B206E009F1010000F04D
:1021C000FF09B9F1080FDBDB00BF681CC5B200983E
:1021D0008542D0DBBDE8F88F7B02002070B5044655
:1021E0000E4656B14FF480411E48FFF7C8F84FF431
:1021F00080711D48FFF7C1F809E04FF4804119488C
:10220000FFF7BBF84FF480711748FFF7B6F80025C9
:102210001BE04FF400511348FFF7AFF804F08000C3
:1022200028B14FF480510F48FFF7A9F804E04FF4AC
:1022300080510C48FFF7A1F84FF400510948FFF70F
:102240009EF86006040E681CC5B2082DE1DB4FF451
:1022500080410448FFF793F84FF480710248FFF77C
:102260008EF870BD000C014000080140704700006E
:1022700001460020034A506820F440400843506063
:10228000704700000010024029B1064A526902431B
:10229000044B5A6104E0034A52698243014B5A617C
:1022A000704700000010024029B1064AD26902437B
:1022B000044BDA6104E0034AD2698243014BDA61DC
:1022C000704700000010024029B1064A926902439B
:1022D000044B9A6104E0034A92698243014B9A617C
:1022E000704700000010024029B1064AD26802433C
:1022F000044BDA6004E0034AD2688243014BDA609F
:102300007047000000100240704710B500F002F85E
:1023100010BD00000CB5002001900090334800680B
:1023200040F480303149086000BF3048006800F454
:10233000003000900198401C0190009818B9019855
:10234000B0F5A06FF1D12948006800F4003010B159
:102350000120009001E0002000900098012843D166
:102360002348006840F010002149086008460068D2
:1023700020F0030008600846006840F00200086092
:102380001A4840681949486008464068486008464D
:10239000406840F4806048600846406820F47C1043
:1023A00048600846406840F4E81048600846006805
:1023B00040F08070086000BF0C48006800F00070BA
:1023C0000028F9D00948406820F003000749486018
:1023D0000846406840F00200486000BF034840687B
:1023E00000F00C000828F9D10CBD000000100240DC
:1023F000002002400A46002103E04B1CC35C43540A
:10240000491C0F29F9DBC2737047042808D14FF02B
:10241000E021096941F004014FF0E022116107E079
:102420004FF0E021096921F004014FF0E022116131
:102430007047704710B51348006840F0010011491B
:10244000086008464068104908400E494860084640
:1024500000680E4908400B4908600846006820F4EF
:10246000802008600846406820F4FE0048604FF471
:102470001F008860FFF749FF4FF0006004490860C3
:1024800010BD0000001002400000FFF8FFFFF6FE44
:1024900008ED00E02DE9F041A248007801280CD1B8
:1024A0002321002001F074F945B2284601F085FC93
:1024B0009D49087000209B4908709C4800680028CE
:1024C0003EDD9A480068B42811D199480078012867
:1024D00002D140F24B2001E04FF45C7004462046EC
:1024E000FEF7FEFB0121934800F097FE14E08F48B1
:1024F00000685A2810D18E480078012802D140F295
:10250000974001E04FF4DC7004462046FEF7E8FBFC
:102510000121884800F081FE84480068401E8349FC
:10252000086008460068002809D1814908704FF406
:102530007A70FEF7D5FB00217E4800F06EFE79E050
:102540007D480068002875D17C480078012832D188
:102550007B48007801282ED17A480078012802D1E2
:102560007948006801E07948006879490860754851
:102570000078012801D12E2100E02D217548027834
:102580000078401C734B187073488154734800687E
:1025900073490860734800686D49096808446649D2
:1025A000086068480078012801D1022000E001207D
:1025B000644908703EE06148007801281BD16248F8
:1025C0000068634908602E21624802780078401C48
:1025D000604B18706048815460480068604908602A
:1025E000604800685A490968084453490860022055
:1025F000544908701EE05248007801281AD1534807
:102600000068534908602D21524802780078401C28
:10261000504B187050488154504800685049086029
:10262000504800684A490968084443490860012045
:102630004449087040480068002817DD3E4800689B
:10264000401E3D49086042480068002809DD01211C
:10265000384800F0E2FD3E480068401E3C490860F2
:102660005DE00021334800F0D8FD58E03C480068A8
:10267000002805DD3A480068401E394908604EE0F0
:1026800034480078F0B334493748FEF77AFE3749CA
:102690000870072230493648FEF758FA07212E48BD
:1026A000FEF744FA33480068401C324908602F485E
:1026B00000781D490978884212D12F480068401CD3
:1026C0002D49086001201A490870B4201749086094
:1026D0000121184800F0A1FD01201249087009E00D
:1026E000022013490870B4201049086001211148E4
:1026F00000F093FD1F48006801F09AFE06461E4850
:10270000006800E00BE001F093FE07461B4901F072
:10271000DBFE0546314601F08DFD19490860BDE834
:10272000F08100002E0300202F030020A0030020D2
:102730009C030020000400408C030020280300209C
:1027400029030020840300204400002048000020CA
:102750008803002078050020790500205000002023
:10276000900300204C000020A80A002087050020CC
:102770008005002094030020980300200000C84238
:102780003403002010B56B480068002840D16A4827
:102790000078062806DB0020674908700721674893
:1027A000FEF7C4F966480078012832D16548007800
:1027B00001282ED164480078012802D163480068BE
:1027C00001E063480068634908605F4800780128B9
:1027D00001D12E2100E02D21574802780078401CBD
:1027E000554B1870554881545B4800685B49086038
:1027F0005B4800685749096808444E4908605248D8
:102800000078012801D1022000E001204E49087023
:102810003EE04B48007801281BD14C4800684D49E8
:1028200008602E21444802780078401C424B187002
:102830004248815448480068484908604848006850
:102840004449096808443B49086002203E49087031
:102850001EE03C48007801281AD13D4800683D49F7
:1028600008602D21344802780078401C324B1870E3
:102870003248815438480068384908603848006850
:102880003449096808442B49086001202E49087022
:1028900028480068002817DD26480068401E2549A2
:1028A00008602C480068002809DD01212D4800F04F
:1028B000B4FC28480068401E2649086039E0002121
:1028C000284800F0AAFC34E024480068002805DD10
:1028D00022480068401E214908602AE01648007816
:1028E00098B116492048FEF74CFD20490870072290
:1028F00012491F48FEF72AF907211048FEF716F97A
:102900001C4800681C49086013E01B480068002848
:1029100005DD19480068401E1749086009E016489F
:10292000006830B92020114908704FF0FF3012497B
:10293000086010BD540300207805002079050020B0
:1029400028030020290300204E030020440000201B
:1029500048000020500300205000002058030020B1
:102960004C00002000040040A80A00208705002039
:1029700080050020540000205C0300202DE9F04178
:10298000C8480078012851D12321002000F000FF21
:1029900046B2304601F011FAC3490870C349C24833
:1029A000007800F029FFC148FDF78EFCC04908708F
:1029B0000978491EBF4A52F82100FDF785FCC4B2D0
:1029C0000020BD490870611E00F0E2FEBB4908709E
:1029D000B7480078401EB74951F82000B749097838
:1029E000405CB749087008460078AF4909788842CA
:1029F0000FD1B2480078401C90FBF4F104FB1101A8
:102A0000AB480078401EAB4A52F82000405CAC490D
:102A10000870FDF7DDFB00F00100AA4908700020F6
:102A2000A0490870A8490870A8490870A84800681B
:102A300000283EDDA6480068B42811D1A5480078DA
:102A4000012802D140F24B2001E04FF45C700546B2
:102A50002846FEF745F901219F4800F0DEFB14E00F
:102A60009B4800685A2810D19A480078012802D162
:102A700040F2974001E04FF4DC7005462846FEF72F
:102A80002FF90121944800F0C8FB91480068401ECE
:102A90008F49086008460068002809D18D490870F0
:102AA0004FF47A70FEF71CF900218B4800F0B5FB5B
:102AB000A1E08A480068002816DD88480068401EAA
:102AC0008649086086480068002809DD012182489F
:102AD00000F0A3FB82480068401E8149086003E0C3
:102AE00000217D4800F099FB7E4800780128DFD165
:102AF00074480078012803D17B480078012806D06B
:102B000070480078C0BB79480078012835D17848F2
:102B10000068401C7649086076480068401C75498A
:102B2000086001206B490870B420694908600121E0
:102B3000694800F072FB01205A4908700020694979
:102B400008705D49087066490860C82063490860DC
:102B50006848006801F06CFC07466548006801F0B1
:102B600067FC8046644901F0AFFC0646394601F037
:102B700061FB624908603EE0FFE75248007818B9FF
:102B800059480078012807D04E480078012832D1F2
:102B90005648007801282ED156480068401C5549F7
:102BA000086002204B490870B4204949086001219F
:102BB000494800F032FB01203A4908700020494999
:102BC00008703D49087046490860C82043490860BC
:102BD0004848006801F02CFC07464548006801F0B1
:102BE00027FC8046444901F06FFC0646394601F057
:102BF00021FB4249086039480068002850D12B4821
:102C00002D490978405C2E280FD13D480068344991
:102C100008603C4800680968084430490860264854
:102C20000078401C244908703AE02048224909787D
:102C3000405C2D280FD1344800682949086031488C
:102C4000006809680844254908601B480078401C52
:102C50001949087024E01848007815490978884215
:102C60001ED101201F4908700020134908704FF43D
:102C7000FA601A4908601348007810B90A480078C9
:102C800001E00F480078104908700E4800780128CC
:102C900002D10548007801E0094800780B49087026
:102CA000BDE8F0812E0300202F030020BC0300208C
:102CB000C403002060050020C5030020C8030020D5
:102CC000C9030020C7030020300300203103002087
:102CD000B8030020B403002000040040A803002033
:102CE000A4030020C603002028030020290300209D
:102CF000B0030020AC0300200000C84234030020D1
:102D0000440000204C000020480000202DE9F04144
:102D1000AC480078012816D1AB48007840B201F0E9
:102D20004CF8AA490870A8480078401CC0B2A649CF
:102D30000870242190FBF1F201FB1200A2490870F7
:102D40000020A0490870A248006800283EDDA04885
:102D50000068B42811D19F480078012802D140F2C0
:102D60004B2001E04FF45C7004462046FDF7B8FFAD
:102D70000121994800F051FA14E0954800685A285A
:102D800010D194480078012802D140F2974001E028
:102D90004FF4DC7004462046FDF7A2FF01218E4867
:102DA00000F03BFA8A480068401E894908600846DE
:102DB0000068002809D1874908700021864800F082
:102DC0002CFA4FF47A70FDF78BFFF9E08348006826
:102DD000002840D182480078062806DB0020804980
:102DE000087007217F48FDF7A1FE7F480078012881
:102DF00032D17E48007801282ED17D480078012804
:102E000002D17C48006801E07B4800687B4908608B
:102E100077480078012801D12E2100E02D2170484B
:102E200002780078401C6E4B18706E4881547448CC
:102E3000006874490860744800687049096808446B
:102E4000664908606A480078012801D1022000E044
:102E50000120674908703EE06348007801281BD1D3
:102E600064480068654908602E215D480278007852
:102E7000401C5B4B18705B48815461480068614995
:102E80000860614800685D49096808445349086062
:102E90000220574908701EE05448007801281AD1D2
:102EA00055480068554908602D224D480178007842
:102EB000401C4B4B18704B484254514800685149D4
:102EC0000860514800684D49096808444349086052
:102ED00001204749087041480068002817DD3F4835
:102EE0000068401E3D49086044480068002809DD2C
:102EF0000121394800F091F940480068401E3F49DF
:102F000008605DE00021344800F087F958E03D4852
:102F10000068002805DD3B480068401E394908600C
:102F20004EE02F480078E8B32E493848FEF729FADA
:102F30003749087007222B493648FDF707FE07215D
:102F40002848FDF7F3FD34480068401C324908600A
:102F50002F4800781D490978884212D12F4800680F
:102F6000401C2E49086001201A490870B4201849F5
:102F700008600121184800F050F90120114908703B
:102F800009E0022013490870B420114908600121AA
:102F9000114800F042F92048006801F049FA06465D
:102FA0001E4800E00CE0006801F042FA07461C49A8
:102FB00001F08AFA0546314601F03CF919490860EA
:102FC000BDE8F0812E030020700300202F030020B5
:102FD000800300207C0300200004004068030020E0
:102FE000780500207905002028030020290300200F
:102FF00060030020440000204800002064030020FB
:10300000500000206C0300204C000020A80A002083
:10301000870500208005002074030020780300202D
:103020000000C842340300207FB505460C4600204E
:103030000190029003900121C802FFF745F9ADF815
:103040000850ADF804400020ADF80A00ADF80600C5
:1030500001A9104800F010F9012211460D4800F0B6
:10306000F9F801210B4800F0D5F819208DF800007F
:1030700001208DF8010002208DF8020001208DF85A
:1030800003006846FEF7AAFB0121024800F0C5F8DC
:103090007FBD0000002C014010B501213F4800F029
:1030A000C8F8012878D13E483E490978405C3E493D
:1030B0000978081A3C4908703C483A490978405C4C
:1030C0003B490978081A3A4908703A480068344977
:1030D000344A127888543848D0F820013349314AAC
:1030E000127888542E482F490978405C2E49097877
:1030F00008442D4908702D482A490978405C2C491C
:10310000097808442A49087026480078401CC0B253
:10311000244908700A2190FBF1F201FB12002149B9
:10312000087021480078052801DA012000E000201D
:10313000224908701E480078052801DA012000E0C5
:1031400000201F4908701D4800781E4908701C485F
:1031500000781D4908701D480078012818D11C48C6
:103160000078012806D0022807D0032808D00428B8
:103170000DD109E0FFF706FB09E0FFF7C7FD06E008
:10318000FFF788F903E007E0FFF7F8FB00BF00BF97
:103190000121024800F03EF810BD0000002C014063
:1031A000E00900204D03002049030020EA09002027
:1031B0004A03002024812142008021424B03002049
:1031C0004C03002028030020290300202D030020A9
:1031D0002C0300203EB505460C46002000900190CF
:1031E000029001210220FFF75FF8ADF80450ADF81E
:1031F00000400020ADF80600ADF802006946044822
:1032000000F03AF82021024800F02DF83EBD000001
:1032100000040040CA430282704721B1028842F094
:103220000102028004E002884FF6FE731A40028019
:10323000704730B50246002000230024158A05EAB5
:103240000103958905EA010413B10CB1012000E0E6
:10325000002030BD1AB183890B43838102E083894A
:103260008B438381704782884FF68F731A40828028
:1032700082880A438280704700220288114B98425C
:1032800008D0B0F1804F05D00F4B984202D00F4BC1
:10329000984204D14FF68F731A404B881A434FF669
:1032A000FF431A40CB881A4302808B8883850B88A2
:1032B0000385044B984201D10B7A03860123838254
:1032C00070470000002C014000040040000800404E
:1032D00008B52148006818B920480088401C00E063
:1032E00000201E490880084600880A2819DD084683
:1032F0000088282815DC00203F237C223C210090F8
:103300000420FEF747FB01200090144800780A389B
:1033100080000830C2B23F233C210420FEF73AFB74
:1033200019E00E480088292804D100F0E1F9FDF7E2
:1033300015FB10E00948008829280CDD01200090C9
:10334000064800780A3880000830C2B240233B218A
:103350000420FEF71FFB08BD140121428C0500204C
:10336000F8B504253C4806683C49304601F078F938
:1033700001D2012000E00020281AC5B238493046A9
:1033800001F06EF901D2012000E00020281AC5B238
:103390003449304601F064F901D2012000E00020F8
:1033A000281AC5B23049304601F05AF901D201203D
:1033B00000E00020281AC5B20F237F2200216920D7
:1033C000FEF7C0FA0B23682204216720FEF7BAFA41
:1033D00000200D237D22022100906B20FEF7DAFAF7
:1033E00022491D48006801F03BF805D20022022165
:1033F0006B20FEF7B1FE2DE01D48006848B91D485E
:103400000068012805D1012202216B20FEF7A4FEED
:1034100020E017480068012808D11648006828B93C
:10342000022211466B20FEF797FE13E004240FE002
:10343000012004EB84016931CAB204EB84016631D6
:103440000090C8B20D230221FEF7A4FA601EC4B298
:10345000AC42EDDCF8BD00002C00002000007A45F5
:1034600000C0734500806D450040674500002F4552
:103470001C01214200812142F8B5054600270026A3
:103480002846FCF721FF062801D3062002E0284643
:10349000FCF71AFFC7B2002021237F221E210090D3
:1034A0001420FEF777FA002413E0285D2E2806D1B9
:1034B0003046FEF705FA06F10900C6B208E0285DBD
:1034C0002D2805D13046FEF7EDF906F10F00C6B202
:1034D000641CBC42E9D3F8BD10B50949094800682D
:1034E00001F0BEF805D2012200215020FEF7F4FDC4
:1034F00004E0002211465020FEF7EEFD10BD000052
:1035000000007A453000002010B510230CA22021C5
:103510000020FEF7B1FD0F48FFF7AEFF0E48007820
:1035200038B10D4801780D48FEF764FF00200A49C4
:1035300008701023094A30210020FEF79DFD10BDC0
:10354000202020202020202020202020202020207B
:1035500000000000790500208705002038030020C6
:1035600038B5054600203F2343223021009020201B
:10357000FEF710FA0D2230210020FEF735FC0E2256
:1035800030211020FEF730FC3F234222302128203A
:10359000FEF7D8F9002411E0012004EB44014900B2
:1035A0002E31CAB204EB440149002A310090C8B25E
:1035B0003D233221FEF7EEF9601CC4B2AC42EBDDD4
:1035C00038BD000010B530480078012806D0022828
:1035D00019D003282CD0042854D13EE000221146F3
:1035E0001046FEF701FC012200211020FEF7FCFB33
:1035F000062200212020FEF7F7FB072200213020C1
:10360000FEF7F2FB3EE0022200210846FEF7ECFB4B
:10361000032200211020FEF7E7FB062200212020D4
:10362000FEF7E2FB072200213020FEF7DDFB29E058
:10363000042200210846FEF7D7FB052200211020B6
:10364000FEF7D2FB062200212020FEF7CDFB072249
:1036500000213020FEF7C8FB14E00F2200210846AD
:10366000FEF7C2FB102200211046FEF7BDFB06222A
:1036700000212020FEF7B8FB072200213020FEF7B2
:10368000B3FB00BF00BF10BD2C03002038B50546BA
:1036900000203F236022302100902020FEF77AF99D
:1036A0000B2230210020FEF79FFB0C22302110203E
:1036B000FEF79AFB3F23602230212820FEF742F9D3
:1036C000002411E0012004EB440149002E31CAB26C
:1036D00004EB440149002A310090C8B23D23322155
:1036E000FEF758F9601CC4B2AC42EBDD38BD0000F7
:1036F0000348007803490875034800784875704707
:103700002B030020F40900202A03002000BFFEE75D
:103710000A48007800EB4000094A02EB80010748A4
:103720000078401C054A107029B1002008704860DC
:103730008860084670470020FCE7000089050020EB
:10374000B40A00200146114A12884A434FF0E02390
:103750005A6100229A611A46126942F001021A6106
:1037600000BF4FF0E022106900F001021AB100F42E
:103770008032002AF5D04FF0E022126922F00102D7
:103780004FF0E0231A6100229A6170471E0000206A
:1037900070B504460D46FCF71BFD291B491C90FB28
:1037A000F1F201FB12000619304670BD70B50446F7
:1037B0000D461646287808B9267070BD28782E2840
:1037C0000AD1606810B9FFF7A3FF60603246691C38
:1037D0006068FFF7EBFF0CE028782D2809D1A0687E
:1037E00010B9FFF795FFA0603246691CA068FFF78B
:1037F000DDFF00BFE1E7000070B504460D46412C37
:103800000ADB5A2C08DCA4F141000A4A52F82010C5
:103810002846FCF735FD0BE0302C09DB392C07DCA2
:10382000A4F13000044A52F820102846FCF728FD85
:1038300070BD0000C40400202C0500200146412971
:1038400005DB5A2903DCA1F14100C0B270473029E1
:1038500005DB392903DCA1F11600C0B2F6E7002030
:10386000F4E700001CB50024FDF730FEFEF758F920
:10387000FDF74EF8FD48007830B1012808D0022845
:103880000AD0032810D10BE05520F94908600BE05D
:103890004B20F749086007E04120F549086003E044
:1038A0003720F349086000BF00BFF148006800EB13
:1038B0004000F0490860EE480068EF490860EC48B5
:1038C000006800EB4000ED490860E9480068C0EB83
:1038D000C000EB490860EB48EB4A127850F8221020
:1038E000EA48FDF7F3FB4FF47A70FDF7F9F901218F
:1038F000E748FFF792FC0020E649086032E2FDF756
:10390000C1F80446E448006800F072FDE349098804
:1039100045182846FCF796FC032C47D1D34800787D
:1039200030B101280BD0022810D003281CD114E09C
:103930000120CE4908704B20CD49086014E00220D8
:10394000CA4908704120CA4908600DE00320C749F0
:1039500008703720C649086006E00020C349087097
:103960005520C349086000BF00BFC148006800EB94
:103970004000C0490860BE480068BF490860BC48B4
:10398000006800EB4000BD490860B9480068C0EB22
:10399000C000BB490860B5480078FFF7E1FDFEF7BD
:1039A000BFF84FF4FA70FFF7CDFE34E0012C32D1AE
:1039B000FDF756FF0021B648FFF72FFC0120B8495C
:1039C0000870B848B8490860B8480078012806D09F
:1039D000022808D003280AD004281BD10BE00220BB
:1039E000B249087016E00320B049087012E00420C4
:1039F000AE4908700EE00120AC490870ACA1B14896
:103A0000FCF73EFC0721B048FDF790F80020AF49D5
:103A1000087000BF00BFAE48006800285CD1AD4907
:103A200008709C4884380068012827D19948883854
:103A30000068012822D10020A7490870A748007813
:103A4000E0B99048904A127850F822108F48FDF75C
:103A50003DFB0120A14908708B480078FFF716FE56
:103A6000FEF75EF801218A48FFF7D7FB4FF4967006
:103A7000FFF768FE00218648FFF7CFFB96480078E5
:103A800048BB84488438006888B97F480078082893
:103A900001DB082002E07C480078401C7A4908706D
:103AA00001208D49087000208C49087017E0794882
:103AB0008838006878B97448007808B9002002E0B6
:103AC00071480078401E70490870012082490870D2
:103AD00000208249087002E001207E490870734886
:103AE0000078012802D1FFF70FFDA4E06F480078AD
:103AF000022836D17A48027816210020FEF71AFAF9
:103B000077480078FFF79AFE764951F8205028460A
:103B1000FFF7B2FC082230210020FEF765F90922E8
:103B200030211020FEF760F90A2230212020FEF714
:103B30005BF910236CA230210846FEF79DFA102095
:103B400002210323CDE900105748302102683C20B0
:103B5000FEF70CF8102366A230217420FEF78CFAD1
:103B600069E05248007803282FD15D480278162179
:103B70000020FEF7DFF95448FFF77EFC08223021D1
:103B80000020FEF731F9092230211020FEF72CF930
:103B90000A2230212020FEF727F9102352A23021DB
:103BA0000846FEF769FA102002210323CDE9001030
:103BB0003D48302102683C20FDF7D8FF10234CA27D
:103BC00030217420FEF758FA35E038480078042890
:103BD00031D1082220210020FEF706F909222021F8
:103BE0001020FEF701F90A2220210846FEF7FCF812
:103BF000102340A220213020FEF73EFA10233EA2DF
:103C000030210020FEF738FA102002210323CDE9ED
:103C100000102548302102680020FDF7A7FF3A4830
:103C2000027812216420FEF785F9384802782A21AB
:103C30006420FEF77FF9FFF793FBFFF7C3FCFFF764
:103C40004BFCFFF745FB32493248006800F008FDA5
:103C50007DD23148007840B901202F4908700A48C8
:103C6000007802285ADD02205AE070E02B03002081
:103C700044000020480000204C000020500000209C
:103C800054000020B04700082A0300209A040020B6
:103C900000040040A88121422C000020242C014077
:103CA0002E0300200000C842340300202C03002013
:103CB0002020202020202020202020202020202004
:103CC000000000003803002079050020870500204F
:103CD0000C0121422D0300200000002001000020E3
:103CE0002F030020C40400203A20202020202000A0
:103CF000250000003A000000202020202020202560
:103D0000202020202000000030030020310300206C
:103D100000207D453000002002000020124800787D
:103D20001149087011480A46127850F822101048BC
:103D3000FDF7CCF90C480078FFF7A8FCFDF7F0FE82
:103D4000FA20FFF7FFFC00200A49087008E00A4942
:103D50000A48006800F084FB02D20020084908707D
:103D6000FDF7DEFECBE500002A030020B047000887
:103D70009A0400200100002000007A453000002055
:103D80000200002070B50446204600F0B9F905464F
:103D90000022134600F07AF802D284F0004070BD91
:103DA0002046FCE710B50246012000E050430B1E00
:103DB000A1F10104E1B2F9D110BD0146002901DBF6
:103DC000232901DD002070471A2902DA01F14100A0
:103DD00001E001F11600C2B21046F4E730B5054625
:103DE0000C460DB1207808B9284630BD20782E2821
:103DF00004D1611C6868FFF7F1FFF6E720782D28F1
:103E000004D1611CA868FFF7E9FFEEE70020ECE7AA
:103E100021F00042A2F16052B2F5801F01F0004390
:103E200028BFD2F17F6C0BD95FEA001C43EAC202C3
:103E300042EB507018BF704728BF20F00100704758
:103E4000B2F5801FBCBF184670474FEA410C1CF505
:103E5000001F02D2084600F0FEBB70B500F0FCF86F
:103E600000000089FFF7F6BF4FF00040A0F580008A
:103E70007047491058BFC1F140415B1058BFC3F1B2
:103E800040438B42EFF300807047000051EA030C7F
:103E900017D41CF5801F58BFBCF5801F00F10680A9
:103EA000994218BF704708BF9042704707D711F575
:103EB000801F58BF13F5801F19D49942704789425B
:103EC00070471CF5801F08D5BCF5801FF7D58B42C5
:103ED00018BF704708BF824270474FF4001C1CEBAC
:103EE000410F38BF1CEB430F01D28B42704770B5B6
:103EF00000F0B2F8922449004FF000514FF0805387
:103F0000FFF7B7BFDFF848C170B51CEA111E1EBF2E
:103F10001CEA13159EEA0C0F95EA0C0F00F06F8057
:103F200081EA030423EA4C134EEAD47E21EA4C11C1
:103F300041F4801143F48013AE44A1FB024CA0FB7A
:103F40000365AEF17F7E361955EB0C05A1FB034CE2
:103F50004CF10003A0FB021C16EB0C06654153F16B
:103F60000003094218BF46F0010613F4007F0BD18D
:103F70004FEA03314FEA0530340341EA155140EA74
:103F800016506FF003020AE04FEAC3214FEAC52042
:103F9000F40241EA555140EA56506FF0020202EB3A
:103FA0002E4201EB025585EACE710AD05FEA440C3D
:103FB00018BF24F0004450F1000041F1000120EA54
:103FC000D47040F2FE7C624500D270BDA84214BF9E
:103FD0004FF080444FF04044002E08BF0024BEF153
:103FE000806FA8BFA1F1C041BDE8704080F282801F
:103FF0004FF0000001F1C04101F0004170479EEA1E
:104000000C0F0CEA131518BF95EA0C0F06D04FF0F1
:10401000000081EA030E0EF0004170BD00F01CF8B4
:104020008900013E00F007B800F009B84FEA430CE0
:104030005FEA5C5C08D081EA030100F05BB84FEAFC
:10404000410C5FEA5C5CF6D14FF00000014970471B
:104050000000FF070000F87F0EF1020E2EF0030EA5
:104060005EF8046B364205D4012A43EB030515F5CF
:10407000001F12D8012841EB010C1CF5001F0CD8C1
:104080000ED14FEAD17C15F5001F0CEB4C0C0CF156
:10409000020C08BF4CEBD37C04E04FF0080C01E0AD
:1040A0004FEAD37C0CEB4C0526FA05F606F0070622
:1040B000B6F1040C06D20EEB860CBDE870404CF055
:1040C000010C6047DFE80CF0090B02024FF00041E1
:1040D0004FF00000A1F5002170BD194610460128DF
:1040E00051EB010418BFD4F5001484BF002001F087
:1040F000004170BD0808A0F500114FEA310170477A
:1041000043004FEAD30C4FEA3C0C43401FBF40072B
:104110000CF1605113F0FE4F70471CF0006F03D19B
:1041200000200CF0004170470CF0004343EA50704F
:1041300010B540EACC0000F048FA00BF0000009241
:104140004FEA0001FFF7D6BF4FF000414FF00000EB
:10415000A1F500217047000090EA010F48BF81F0EF
:10416000004100F1B682421A3CBF801A89184FEA1A
:10417000D0524FF07F4C1CEA410FA2EBD15318BF35
:104180009CEA026F00F03B804FF0004C4CEA0020AC
:104190004CEA012121FA03FC10EB0C0C1ED202F1B7
:1041A000FF325FEA1C2040EBC25038BF70471CF062
:1041B0007F0F4FEA400C18BFBCF17F4F38BF7047EC
:1041C000C3F12003994008BF20F00100BCF17F4FEC
:1041D00038BF7047A0F1C04000F03DBA4FEA3C0044
:1041E000000A40EBC25028BF1CF0FF0F4FEA400C02
:1041F000E6D018BFBCF17F4F38BF7047EAE79CEAB2
:10420000026F05D010EA5C0F08BF00F00040704755
:1042100010B500F0DAF900BF64FBBE3E401058BF95
:10422000C0F14040491058BFC1F140418142EFF315
:10423000008070474FF47F0C1CEAD0121EBF1CEAAE
:10424000D11392EA0C0F93EA0C0F00F0858090EAEC
:10425000010F48BF42F4807240F4000C41F40000AA
:104260002CF07F4120F07F4000B58142A2EB030299
:104270000FF2081CACEB504EC0F100009EF800E0BD
:104280004FEA4E0E00FB0EFC38BF49004FEA2C1CD3
:1042900002F5FA020CFB0EF34FEACE1E4FEA112C88
:1042A0004FEAC1210EEB635E42EB22420EFB0CFC97
:1042B0004FEA1C5300FB03114FEA112C4FEA013166
:1042C0000EFB0CFC4FEADC4C00FB0C11C14228BF7A
:1042D00009184CEB03335DF804EB10EB410143EBA1
:1042E000C250B2F57C0F38BF704729D512F0F00FDD
:1042F0001CBF00F1C04000F0004070470081828385
:104300008485868788898B8C8D8E8F9192939596E4
:1043100097999A9C9D9FA0A2A3A5A7A8AAACAEB06E
:10432000B2B3B5B7B9BCBEC0C2C5C7C9CCCED1D473
:10433000D7D9DCDFE2E6E9ECF0F3F7FAFE000000A3
:104340004FEA400C0CF1807CBCF17E4F28BF7047D7
:10435000B0F1C04000F07FB990EA010F0CEAD11330
:1043600048BF42F48072624538BF634507D213F4F8
:104370007F0F16D080EA010000F00040704710B5B2
:1043800000F023F9097EFC3E00F005B880EA010048
:1043900000F00040704780EA010000F0004000F0AB
:1043A0005AB912F47F0F04BF0248704780EA010037
:1043B00000F051B90000C07F41000B0ED3F19E0206
:1043C00008D950F400034FEA032323FA02F048BF50
:1043D0004042704710B500F0F8F800BF49922480C1
:1043E000002070476FF0004282EA20007047000012
:1043F000C10DD1F19E0206DB4FEA002343F00043DA
:1044000023FA02F07047004207D54FEA4001B1F1AC
:10441000FE4F02D24FF00000704710B500F0D5F803
:1044200049922480002070476FEA20007047000006
:1044300010F0004148BF4042B0FA80F310FA03F296
:10444000C3F19D030BD051EAC35101EB1220530677
:1044500038BF704700F1010008BF20F0010070472D
:1044600050EA010C00F113801CF5000F58BFBCF599
:10447000000F01D48842704707D710F5000F58BFCE
:1044800011F5000F15D488427047894270471CF51A
:10449000000F04D5BCF5000FF7D5814270474FF0EF
:1044A000807C1CEB400F38BF1CEB410F01D28142D6
:1044B000704710B500F089F8922449004FF0005081
:1044C0004FF08051FFF7AABE4FF47F0C1CEAD012C8
:1044D0001EBF1CEAD11392EA0C0F93EA0C0F00F0F6
:1044E000478090EA010F48BF42F480724FF0004CC1
:1044F0004CEA00204CEA012102EB0302A0FB01136D
:10450000A2F50002002918BF43F001035B0028BF99
:104510004FEA330342EB22425FEA132C4CEBC250CA
:104520002EBFBCEB436FB2F57C0F70474FEA036CB4
:10453000BCF1004F08BF20F00100B2F57C0F38BF7E
:1045400070470BD582F0FF0212F5803FC8BF70475D
:1045500000F1C040D8BF00F00040704700F5000CEB
:104560005FEA4C0C48BF7047B0F1C04000F073B830
:1045700090EA010F0CEAD11348BF42F48072624501
:1045800038BF634504D280EA010000F00040704764
:1045900010B500F01AF800BF8900013E00F007B81E
:1045A00000F009B85FEA410C5FEA1C6C08D080EAB1
:1045B000010000F050B85FEA400C5FEA1C6CF6D1D5
:1045C0004FF00040A0F5800070470EF1020E2EF073
:1045D000030E5EF8044B244204D44FEA4102B2F1C8
:1045E0007F4F11D84FEA4003B3F17F4F0CD80ED163
:1045F0004FEAD07CB2F17F4F0CEB4C0C0CF1020C6B
:1046000008BF4CEBD17C04E04FF0080C01E04FEA0E
:10461000D17C0CEB4C0324FA03F404F00704B4F14E
:10462000040C06D20EEB840CBDE810404CF0010CDB
:104630006047DFE80CF0070802024FF00040A0F5E9
:10464000800010BD0846420018BFD2F1807288BFBA
:1046500000F0004010BDFF2141EAD050C005704776
:1046600051EA000C00F113801CF5000F58BFBCF597
:10467000000F01D48142704707D711F5000F58BFD2
:1046800010F5000F15D481427047894270471CF520
:10469000000F04D5BCF5000FF7D5884270474FF0E6
:1046A000807C1CEB410F38BF1CEB400F01D28842CD
:1046B000704780EA010081EA000180EA0100FFF70B
:1046C000F8BE000090EA010F48BF81F000413FF5BD
:1046D0004AAD421A04D882F00042A0EB0200114415
:1046E0004FEAD0524FF07F4C1CEA410FA2EBD1535E
:1046F00018BF9CEA026F4AD04FF0004C4CEA0020F1
:104700004CEA012121FA03FCB0EB0C0C0FD412F09F
:10471000FE0F36D05FEA4C001DD5001240EBC250B0
:1047200038BF70471CF03F0F18BF70470BE0A2F175
:1047300001025FEA1C2040EBC25038BF70471CF0FA
:104740007F0F18BF7047C3F12003994014BF401E6C
:1047500020F00100704780084FEA122308BF70471D
:10476000B0FA80FCA2EB0C02CCF1280C60FA0CF041
:1047700093EA122F04BF00EBC25070474FEAC37098
:104780007047130A5FEADC1008BF7047F6E79CEA3F
:10479000026F04D010EA5C0F08BF0020704710B50C
:1047A000FFF713FF40DFF63E81F000407047000046
:1047B00052499D396F12833AA69B443BCDCCCC3DE8
:1047C000CDCC4C3ECDCCCC3E9A99193FCDCC4C3F74
:1047D0000000803F03C003E003E003E007E007F0D0
:1047E00007F00F700F780F780E381E3C1FFC1FFC6F
:1047F0003FFC3C1E3C1E781E780F780F780F00009F
:104800007FF07FF8787C781E781E781E781E781EE0
:10481000783C7FF87FF8787C781E780F780F780FD7
:10482000780F781E783E7FFC7FF8000007F00FFCC1
:104830001F3E1E1E3C0E3C0F3C0F780F7800780088
:10484000780078007800780F780F3C0F3C0E3C1E03
:104850001E3E0FFC07F801E07FC07FF079F8787CFE
:10486000783E781E781E781E780F780F780F780FB4
:10487000780F781E781E781E781E783C78FC7FF8BA
:104880007FE000003FFE3FFE3C003C003C003C005F
:104890003C003C003C003FFC3FFC3C003C003C003A
:1048A0003C003C003C003C003C003FFF3FFF000060
:1048B0007FFF7FFF7800780078007800780078002C
:1048C00078007FF87FF87FF878007800780078002B
:1048D00078007800780078007800000007F00FF882
:1048E0001F3C1E1E3C1E3C1E381E780078007800BF
:1048F000780078FE78FE780E780E3C0E3C0E3C1E5A
:104900001E3E1FFE07FE01CE781E781E781E781E02
:10491000781E781E781E781E781E7FFE7FFE781E19
:10492000781E781E781E781E781E781E781E781ED7
:10493000781E000003C003C003C003C003C003C04F
:1049400003C003C003C003C003C003C003C003C04F
:1049500003C003C003C003C003C003C003C0000002
:10496000001E001E001E001E001E001E001E001E57
:10497000001E001E001E001E001E3C1E3C1E3C1E93
:104980003C1E3C1E3E3C1FFC0FF803C0781E783EC8
:10499000787C787878F079E07BE07BC07F807FC09E
:1049A0007FC07FE07DE078F078F07878787C783CA4
:1049B000783E781E780F0000780078007800780044
:1049C0007800780078007800780078007800780027
:1049D00078007800780078007800780078007FFF11
:1049E0007FFF00007C1F7C3F7C3F7E3F7E3F7E3F01
:1049F0007E7F7E7F7F7F7F7F7F7F7F7F7FFF7FEFD9
:104A00007BEF7BEF7BEF7BEF7BCF79CF79CF000024
:104A10007C1E7C1E7C1E7E1E7E1E7F1E7F1E7F9E39
:104A20007F9E7BDE7BDE79DE79FE78FE78FE787E07
:104A3000787E787E783E783E781E000007F01FF87A
:104A40001E7C3C3E3C1E781E780E780F780F780F47
:104A5000780F780F780F780F780F781E3C1E3C1E69
:104A60003E3C1FFC0FF801C03FF03FFC3C7E3C1E6B
:104A70003C0F3C0F3C0F3C0F3C0F3C1E3C7E3FFC70
:104A80003FF03C003C003C003C003C003C003C0053
:104A90003C00000007F01FF81E7C3C3E3C1E781EC8
:104AA000780E780F780F780F780F780F780F786F6F
:104AB00078EF78FE3C7E3C7E3E3C1FFC0FFE01DC26
:104AC0007FF07FFC787C781E781E781E781E781E1A
:104AD000781E787E7FFC7FF078F078F078787878B0
:104AE000783C783C781E781E780F000007F01FF89D
:104AF0003E7C3C3C3C1E3C1E3C003E001F000FE048
:104B000007F000FC007E001E001E780E780E7C1E52
:104B10003C3E1FFC0FF803C07FFE7FFE03C003C0B6
:104B200003C003C003C003C003C003C003C003C06D
:104B300003C003C003C003C003C003C003C003C05D
:104B400003C00000781E781E781E781E781E781E1E
:104B5000781E781E781E781E781E781E781E781EA5
:104B6000781E781E781E3C1E3E3E1FFC0FF803E0A8
:104B7000F00F780F780F781E381E3C1E3C1C3C3C12
:104B80001E3C1E3C1E780E780F780F700FF007F059
:104B900007E007E003E003E003C003C0F3C7F3CF7F
:104BA000F3CF73EF73EF73EF7FEF7FEE7FEE7FEE68
:104BB0007F7E3F7E3F7E3F7E3E7E3E7C3E7C3E3C17
:104BC0003E3C1E3C1E3C1C3C781E3C1E3C3C1E3C9D
:104BD0001E780F780FF007E003E003C003C003E086
:104BE00007E007F00F700E781E381C3C3C1C781E46
:104BF000780F0000780F780E3C1E3C1C1E3C1E38BF
:104C00000E780F7007F007E003E003C003C003C095
:104C100003C003C003C003C003C003C003C000003F
:104C20003FFE3FFE001E001C003C0078007800F0B4
:104C300000E001E003C003C007800F000F001E006A
:104C40001E003C0078007FFF7FFF000007F00FF898
:104C50001E3C3C3C3C1E3E0E7E0F7B0F7B0F798F33
:104C6000788F78CF784F786F783F3C3E3C1E3C1C65
:104C70001E3C1FF807F001C001E001E003E007E07F
:104C80001FE01DE019E001E001E001E001E001E0CA
:104C900001E001E001E001E001E001E001E001E00C
:104CA00001E000000FF01FFC3E3C3C1E781E001E81
:104CB000001E001C003C003C007800F000E001E019
:104CC00003C007800F001E003E003FFE3FFE0000B5
:104CD00007F00FFC1E3C3C1E381E181E001E001C58
:104CE000007C03F003F8007C001E001E001E180E5E
:104CF000781E3C1E3E3C1FFC0FF001C000380078BF
:104D0000007800F801F801F803F807B80F380E38FA
:104D10001E383C3838387838FFFFFFFFFFFF003877
:104D200000380038003800001FFC1FFC1C001C006D
:104D30001C003C0038003FE03FF87C7C783C001EC3
:104D4000001E000E000E301E701E781E787C3FF88C
:104D50001FF007C000F000F001E003C003C00780AF
:104D60000F000F001FF81FFC3E1E3C0F780F780F3E
:104D7000780F780F780F3C0F3E1E1FFC0FF801E0F4
:104D80007FFF7FFF000F001E001C003C00380078F2
:104D9000007000F000E001E001E001C003C003C0CA
:104DA00003800780078007000F0000000FF01FF846
:104DB0003C3C381E381E381E381E3C3C3E7C0FF0F2
:104DC0001FF83E7C7C1E781E700E700E780E781ECA
:104DD0007C3E3FFC1FF803C00FF01FF83E7C783E7E
:104DE000781E701E701E701E701E783C7C7C3FFC0E
:104DF0001FF800F000F001E001E003C003C00780ED
:104E000007000F000000000000000000000000008C
:104E10000000000000000000000000000000000092
:104E20000000000000000000000000000000000082
:104E30000000000000000000000000000000000072
:104E40000000000000001FCC000C0000000000006B
:104E50000000080030006000080030006000000022
:104E6000022003FC1E20022003FC1E200220000062
:104E700000000E1811043FFF10840C7800000000A1
:104E80000F0010840F3800C00778188400780000E5
:104E900000780F8410C411240E9800E400840008E8
:104EA0000800680070000000000000000000000022
:104EB00000000000000007E0181820044002000075
:104EC000000040022004181807E000000000000065
:104ED0000240024001800FF00180024002400000C9
:104EE0000080008000800FF80080008000800000BB
:104EF0000001000D000E0000000000000000000096
:104F00000000008000800080008000800080008021
:104F10000000000C000C0000000000000000000079
:104F20000000000600180060018006001800200044
:104F3000000007F0080810041004080807F000003B
:104F40000000080408041FFC000400040000000026
:104F500000000E0C10141024104411840E0C0000DC
:104F600000000C1810041104110412880C700000C9
:104F7000000000E00320042408241FFC002400009B
:104F800000001F9810841104110410881070000094
:104F9000000007F008881104110418880070000050
:104FA00000001C00100010FC13001C00100000008A
:104FB00000000E3811441084108411440E38000093
:104FC00000000700088C10441044088807F0000017
:104FD000000000000000030C030C000000000000B3
:104FE00000000000000101060000000000000000B9
:104FF0000000008001400220041008081004000096
:1050000002200220022002200220022002200000B2
:105010000000100408080410022001400080000075
:1050200000000E001200100C106C10800F00000029
:1050300003E00C1813E4142417C4082807D0000058
:105040000004003C03C41C40074000E4001C0004B2
:1050500010041FFC1104110411040E8800700000DC
:1050600003E00C1810041004100410081C100000B9
:1050700010041FFC100410041004080807F00000BE
:1050800010041FFC1104110417C4100408180000B8
:1050900010041FFC1104110017C0100008000000CC
:1050A00003E00C181004100410441C7800400000A9
:1050B00010041FFC10840080008010841FFC10046A
:1050C0000000100410041FFC100410040000000075
:1050D00000030001100110011FFE1000100000006D
:1050E00010041FFC110403801464181C1004000039
:1050F00010041FFC1004000400040004000C000055
:1051000010041FFC1F0000FC1F001FFC1004000007
:1051100010041FFC0C04030000E010181FFC10001A
:1051200007F00808100410041004080807F0000035
:1051300010041FFC10841080108010800F000000ED
:1051400007F0081810241024101C080A07F20000A9
:1051500010041FFC1104110011C011300E0C0004CA
:1051600000000E1C11041084108410441C38000030
:105170001800100010041FFC10041000180000009C
:1051800010001FF810040004000410041FF81000A1
:1051900010001E0011E0001C007013801C001000A5
:1051A0001FC0103C00E01F0000E0103C1FC00000CA
:1051B0001004180C163401C001C01634180C100469
:1051C00010001C00130400FC13041C00100000005D
:1051D0000804101C1064108413041C041018000030
:1051E0000000000000007FFE40024002400200007C
:1051F000000030000C0003800060001C0003000071
:1052000000004002400240027FFE0000000000005B
:10521000000000002000400040004000200000008E
:105220000001000100010001000100010001000176
:1052300000004000400020000000000000000000CE
:1052400000000098012401440144014400FC0004D2
:1052500010001FFC00880104010400880070000099
:1052600000000070008801040104010400880000AF
:105270000000007000880104010411081FFC0004F4
:10528000000000F8014401440144014400C800004A
:105290000000010401040FFC1104110411001800A6
:1052A000000000D601290129012901C901060000D9
:1052B00010041FFC008401000100010400FC000434
:1052C00000000104190419FC00040004000000009F
:1052D0000000000300010101190119FE0000000097
:1052E00010041FFC0024004001B4010C0104000064
:1052F0000000100410041FFC000400040000000063
:10530000010401FC0104010001FC0104010000FC96
:10531000010401FC008401000100010400FC000400
:10532000000000F8010401040104010400F8000079
:10533000010101FF008501040104008800700000E4
:1053400000000070008801040104010501FF000154
:105350000104010401FC008401040100018000003B
:10536000000000CC01240124012401240198000044
:1053700000000100010007F8010401040000000022
:10538000010001F8000400040004010801FC00040D
:10539000010001800170000C00100160018001001B
:1053A00001F0010C003001C00030010C01F00100DF
:1053B00000000104018C00740170018C01040000E4
:1053C000010101810171000E0018016001800100DE
:1053D00000000184010C013401440184010C00002F
:1053E000000000000000000001003EFC40024002FE
:1053F0000000000000000000FFFF000000000000AF
:105400000000400240023EFC0100000000000000DD
:10541000000060008000800040004000200020006C
:10542000000000000000000000000000000000007C
:10543000000000000000000000000000000000006C
:10544000000000000000000000000000000000005C
:105450000000000F80380FFE380F80380000000079
:10546000000000000000000000000000000001003B
:10547000000600000C0000380000310000060000AB
:105480000C000038000030000000000000000000A8
:1054900061800067F807F980006180006180006129
:1054A000800061800067F807F980006180000000DB
:1054B00000000000000001C0E003E0F00630080436
:1054C00018081FFFFE040E080787F00381E00000A4
:1054D0000000000001F000060C00040408060C7037
:1054E00001F9C0000E00003BE000EC1807080804BA
:1054F0000C180003E00000000001E00007F003F8D2
:1055000018041C0804170807E1D003C0E00023B00A
:10551000003C08002008000010000000000000010E
:1055200000003100003200001C00000000000000FC
:10553000000000000000000000000000000000006B
:10554000000000000000000000000000000000005B
:105550007F0001FFC00780F00C001810000420003D
:10556000020000000000002000021000040C0018DF
:105570000780F001FFC0007F000000000000000075
:105580000000000000000000000000004200006673
:1055900000006600003C0000180003FFC000180077
:1055A000003C0000660000660000420000000000B1
:1055B000080000080000080000080000080001FFC3
:1055C000C0000800000800000800000800000800F3
:1055D00000000000000100003100003200001C004B
:1055E00000000000000000000000000000000000BB
:1055F0000000000000000000080000080000080093
:105600000008000008000008000008000008000072
:10561000080000080000000000000000000000007A
:1056200038000038000038000000000000000000D2
:10563000000000000000000000000000000000006A
:10564000000600001C000070000180000E00003801
:105650000000C0000700001C000030000000000037
:10566000000000007F8001FFE00380700600180446
:10567000000804000806001803807001FFE0007FA6
:105680008000000000000000000001000801000888
:1056900001000803FFF807FFF800000800000800F9
:1056A000000800000000000000000001C03802C037
:1056B00058040098040118040218040418061C1861
:1056C00003F81801E0F800000000000000000001ED
:1056D000C0E003C0F0040008040808040808061825
:1056E0000803F41801E7F00001E0000000000000EA
:1056F000000000000300000D000011000061000028
:10570000810803010807FFF80FFFF80001080001F6
:10571000080000000000000000E007FCD0060808B8
:10572000061008061008061008061838060FF006BE
:1057300007C0000000000000000000003F8001FFE3
:10574000E00384300208180410080410080410084C
:10575000071810030FF00007C00000000000000051
:10576000000003C0000700000600000600F806075E
:10577000F806180006E00007000006000000000020
:1057800000000001E1E003F7F006341004180804FB
:105790001808040C08040C0806161803F3F001C1DD
:1057A000E000000000000000F80003FC30030638B1
:1057B0000402080402080402080404100308F001AB
:1057C000FFC0007F0000000000000000000000009B
:1057D00000000000000000007038007038007038D1
:1057E00000000000000000000000000000000000B9
:1057F000000000000000000000000000301A00302F
:105800001C0000000000000000000000000000007C
:10581000000000000000000800001400002200004A
:1058200041000080800100400200200400100800B8
:1058300008000000000000002100002100002100FD
:1058400000210000210000210000210000210000B3
:1058500021000021000000000000000000000800FE
:105860000804001002002001004000808000410078
:1058700000220000140000080000000000000003E7
:10588000C00004C000040000080038080F380808F1
:10589000380810000C300007E00003C000000000D2
:1058A000000000003F8000FFE0038070020F100640
:1058B000708804C088048308047F8802C0900301B4
:1058C0002000FE400000080000180001F8003E081B
:1058D00001C20007020007E20000FE00001FC8002E
:1058E00001F800003800000804000807FFF807FF6F
:1058F000F80408080408080408080408080618083A
:1059000003F41801E7F00001E000000000000000CF
:105910003F8001FFE00380700200180400080400CB
:10592000080400080400100600200780C0000000E2
:1059300004000807FFF807FFF80400080400080443
:10594000000804001802001003807001FFE0007FCF
:105950008000000004000807FFF807FFF8040808AB
:10596000040808040808040808043E08040008069F
:10597000001801006000000004000807FFF807FF9E
:10598000F8040808040800040800040800043E00A5
:10599000060000060000018000000000000000007A
:1059A0003F8001FFE0038070060018040008040235
:1059B000080402080203F00783F00002000002005E
:1059C00004000807FFF807FFF804080800080000B3
:1059D000080000080000080004080807FFF807FF97
:1059E000F80400080000000000000400080400089B
:1059F00004000807FFF807FFF80400080400080483
:105A00000008000000000000000000000006000088
:105A10000700000104000104000104000307FFFE69
:105A200007FFFC0400000400000400000400080755
:105A3000FFF807FFF8040C08001800003E0004C738
:105A4000800503C80600F8040038040018000008A8
:105A500004000807FFF807FFF8040008000008002A
:105A600000080000080000080000080000180000FE
:105A70006000000004000807FFF807800807FC002A
:105A8000007FC00003F80007C00078000780080707
:105A9000FFF807FFF804000804000807FFF80700F4
:105AA0000803C00000E000003800001E00000700EE
:105AB0000001C00400F007FFF8040000000000002F
:105AC0007F8001FFE00380700600180400080400D6
:105AD0000806001803003001FFE0007F800000008E
